:100000000C9425020C945D020C945D020C94531F19
:100010000C945D020C945D020C945D020C945D02E4
:100020000C945D020C945D020C94751A0C94391AB0
:100030000C94721B0C945D020C945D020C945D0296
:100040000C945D020C945D020C945D020C945D02B4
:100050000C945D020C944C1B0C945D020C945D029C
:100060000C945D020C945D020C945D020C945D0294
:100070000C945D020C945D020C945D020C945D0284
:100080000C945D020C945D020C945D020C945D0274
:100090000C945D020C945D020C945D020C945D0264
:1000A0000C945D020C945D020C945D0229001E000C
:1000B0001F002000210022002B0005000800130073
:1000C00012003100E100040018000C0008003600A6
:1000D000E00031001C001B0037000E0000002A0069
:1000E000E200E30021522C002E002700260025000C
:1000F000240023001A001D000D000F000700190046
:10010000100011001500160017000600E500090098
:100110000B000A001400340000002A00E600E7008B
:10012000225228000100010001000100010001002D
:100130003A003B003C003D003E003F0035001E02FF
:100140001F02200221022202010001000100010021
:100150000100010000000100010001000100010098
:100160000100010001000100010001004500440000
:1001700043004200410040003502270226022502CA
:1001800024022302310230022F022E022D0200002F
:1001900000000100010001002352010001000100E4
:1001A000010001000100010035001E001F002000B9
:1001B000210022003A003B003C003D003E003F0091
:1001C000400041004200430044004500000001009F
:1001D00001000100235201000100010001000100A3
:1001E0000100010001002700260025002400230053
:1001F00000004F005200510050000000310030005C
:100200002F002E002D002E02000001000100010031
:1002100001000100000000000000000000000000DC
:1002200000000000000000000000000000000000CE
:1002300000000000000000000000000000000000BE
:1002400000000000000000000100010001000100AA
:10025000000000000000000000000000000000009E
:10026000000000000000000000000000000000008E
:10027000000000000000000000000000000000007E
:100280000000000001000100010001000001010167
:100290000101010101010202020202020202020343
:1002A0000303030303030304040404040404050513
:1002B00005050506060606060707070707080808D6
:1002C00008090909090A0A0A0B0B0B0C0C0C0D0D85
:1002D0000D0E0E0E0F0F0F1010111111121213131D
:1002E0001414151516161717181819191A1A1B1B96
:1002F0001C1D1D1E1E1F20202122222324242526F2
:1003000026272829292A2B2C2D2D2E2F3031323229
:10031000333435363738393A3B3C3D3E3F40414235
:10032000434445464748494A4C4D4E4F505153541B
:10033000555658595A5B5D5E5F61626465666869CF
:100340006B6C6D6F7072737577787A7B7D7E80824F
:10035000838587888A8C8E8F91939596989A9C9E98
:10036000A0A2A3A5A7A9ABADAFB1B3B5B7BABCBEA8
:10037000C0C2C4C6C9CBCDCFD1D4D6D8DBDDDFE275
:10038000E4E7E9EBEEF0F3F5F8FAFDFF0501090605
:10039000A101050719E029E7150025019508750158
:1003A00081029501750881010507190029FF1500D3
:1003B00026FF009506750881000508190129051515
:1003C000002501950575019102950175039101C004
:1003D00009022200010100A0FA0904000001030142
:1003E00001000921110100012244000705810308D1
:1003F000000112010002000000081D8DC2B40001BE
:100400000102000126034100750072006F007200B6
:10041000610020004C0069006C0079003500380054
:1004200020007200650076003100000018037300A0
:1004300070006C00690074006B0062002E006300A5
:100440006F006D0000000403090411241FBECFEFEC
:10045000DAE0DEBFCDBF04B603FE18C0809185048C
:1004600090918604A0918704B09188048730904BC6
:10047000A740B04B59F41092850410928604109254
:10048000870410928804E0E0F8E3099512E0A0E008
:10049000B1E0EEE7F2E402C005900D92A838B10792
:1004A000D9F724E0A8E8B2E001C01D92A538B20750
:1004B000E1F70E949B1B0C943D210C94000080915D
:1004C0007D04837051F0846080937D0410925E01FE
:1004D00080917C04816080937C040895482F209152
:1004E000740490913B0457E0291302C080E0089502
:1004F00030E0529FF001539FF00D1124E45CFB4F5C
:100500008181681306C08081481303C085818111F1
:10051000EECF2F5F3F4F2770E7CF982F9093E900E2
:10052000562F40E022E0891731F05091EC002091E5
:10053000ED004091F00021FD07C09F5F973071F7FB
:100540008093E90081E008953091EB003E7F309385
:10055000EB003091ED003D7F3093ED003091EB00EA
:1005600031603093EB005093EC002093ED0040930A
:10057000F0002091EE0027FDE0CF80E008959091FB
:100580007D04937071F080937E0460937F04413802
:1005900008F040E84093800480917C04816080935F
:1005A0007C040895E8EDF0E080818E7F80831092D6
:1005B000E2001092DA001092E100A0EEB0E08C911F
:1005C00081608C9380818F77808319BCA7EDB0E028
:1005D0008C918E7F8C9380818F7E808310922404F7
:1005E0000895B0E0A0E0E7EFF2E00C947A20C8EDC7
:1005F000D0E088818F7E8883E7EDF0E080818160A4
:10060000808384E082BF81E08093240488818E7F90
:10061000888302EE10E0F80110821092DA0081EE79
:10062000C82ED12CF601108288818F77888388812B
:100630008068888388818F7D888319BC10923A04F2
:10064000109231041092300410922F0490EEE92E93
:10065000F12CF70180818B7F808388818160888382
:1006600060E080E00E948D02F60180818E7F8083B1
:10067000F801808181608083808188608083F701B8
:1006800080818E7F8083888180618883CDB7DEB74B
:10069000E8E00C9496202091E4003091E50085E696
:1006A0009091EC0090FF06C09091E80090FF06C08A
:1006B00080E008959091E80092FDFACF90913A047D
:1006C000992391F0953091F09091EB0095FD10C039
:1006D0004091E4005091E5002417350709F381505B
:1006E0009A01F1F684E0089582E0089583E0089588
:1006F00081E008958091320487FF13C08091E80063
:1007000082FF06C08091E8008B778093E80004C0E8
:1007100080913A048111F2CF089580913A048823A0
:10072000D9F38091E80080FFF8CF8091E8008E77C0
:10073000ECCFFC018091380490913904861797071B
:10074000A0F06115710529F49091E8009E779093CF
:10075000E80090E06115710551F4911108C0809195
:10076000E80082FF35C080E00895BC01F2CF80919F
:100770003A048823C9F18530C9F18091E80083FDEE
:1007800031C08091E80082FDEACF8091E80080FFCF
:10079000E1CF2091F3008091F200322F282F6115D4
:1007A000710519F02830310558F091E028303105F5
:1007B00009F090E02091E8002E772093E800CACF5E
:1007C00081918093F100615071092F5F3F4FE7CF16
:1007D00080913A04882341F0853041F08091E8000F
:1007E00083FFBDCF81E0089582E0089583E00895FE
:1007F0000895089508958091260408952FB7F894D8
:1008000060917504709176048091770490917804DA
:100810002FBF08952FB7F8948091750490917604B6
:10082000A0917704B09178042FBF08959C01FC013A
:1008300032969FEF80E04191461751F09F3F19F4A7
:10084000411101C0982F8F5F8630A9F79F3F09F4AF
:100850000895290F311D97FD3A95F9016283089596
:1008600080911F04882359F0E0912104F091220423
:10087000309729F00190F081E02D0995089580E0EE
:100880000895FC01680F791F8FEF91E32191822772
:1008900028E030E087FF09C0880F892721503109FF
:1008A000C9F7E617F70791F70895880FF7CF90E09B
:1008B0006623A1F0845A9E4FFC0120812F3F89F0CE
:1008C000E22FE295EF70F0E080A190E02F7002C07F
:1008D000959587952A95E2F781700895855A9E4FE0
:1008E000EBCF80E0089590E06623E9F0845A9E4FB4
:1008F000FC0180818F3FB1F0E82FE295EF70F0E0CE
:1009000041A18F7021E030E0B90102C0660F771F6E
:100910008A95E2F7CB01962F9095942391A392A10B
:10092000892B82A30895855A9E4FE2CF9091190496
:10093000E92FF0E040911A049F012F5F3F4F237091
:10094000332742171306A9F0E55EFB4F282F2F77B8
:1009500080818078822B60FB87F980839F5F937012
:1009600090931904809117048F5F8093170481E09E
:10097000089580E00895FA01811101C0FB010995F5
:10098000089530912004311123C0823291051CF169
:100990008297FC01EE0FFF1FDF01A80FB91FA55BB7
:1009A000BC4F11963C911197361307C03C913413FC
:1009B00004C012963C91321771F031E030934A0333
:1009C000E80FF91FE55BFC4F61834083228303C07E
:1009D00082329105F4F2089510924A030895EDE7EA
:1009E000F4E0248130E1231B08F420E0248380918B
:1009F0007C04816080937C040895EDE7F4E0248119
:100A000030E1230F08F42FEF248380917C04816070
:100A100080937C040895EDE7F4E0438120E1421BDC
:100A200008F440E08181628190E00E94BF02089555
:100A3000EDE7F4E0438120E1420F08F44FEF8181BC
:100A4000628190E00E94BF020895EDE7F4E06281C8
:100A500020E1621B08F460E08181438190E00E9404
:100A6000BF020895EDE7F4E0628120E1620F08F42F
:100A70006FEF8181438190E00E94BF020895EDE70E
:100A8000F4E08181438162818850990B0E94BF020A
:100A90000895EDE7F4E0818190E04381628108965A
:100AA0000E94BF02089580917D04869586958150AD
:100AB00009F481E00E945F02089581E00E945F02D4
:100AC00008959EE0899F802D1124980F953408F099
:100AD00094E420912004222321F0933228F092E222
:100AE0000895823208F482E20895FF920F931F93D3
:100AF000CF93DF93182F062FF42ED0E0C0E02F2DD8
:100B0000402F612FCE010E94C1042196C434D1052B
:100B1000B1F7CDB7DEB7E5E00C94992080E00895F9
:100B200081E0809340030895F894E82FE295EF70F8
:100B3000F0E031A1282F2F7081E090E001C0880FF4
:100B40002A95EAF7982F9095932391A392A1892B48
:100B500082A3789408950F931F9380911F04882394
:100B600029F00E94FE031F910F9108950E94FE0339
:100B700000910F0310911003209111033091120383
:100B8000600F711F821F931FEECF9091230392FF7E
:100B900010C041E0282F2471243009F040E031E0FA
:100BA000282F2871283009F030E0431711F02CE08D
:100BB000822793FF10C041E0282F2471243109F0CF
:100BC00040E031E0282F2871283109F030E0431748
:100BD00011F02CE082273091240330FF10C051E047
:100BE000282F2171213009F050E041E0282F287191
:100BF000283009F040E0541711F029E0822731FF36
:100C000010C041E0282F2171213109F040E031E08E
:100C1000282F2871283109F030E0431711F029E01E
:100C2000822794FD877E089582389105B9F1B0F44A
:100C30008133910509F47DC048F48932910509F4A6
:100C40006DC08A32910509F479C008958533910504
:100C500009F45FC08933910509F10895833E910538
:100C6000D9F138F4803E910529F1823E910579F160
:100C70000895863E9105D9F1873E910509F43EC05D
:100C8000843E910541F52091240321FF24C08091E9
:100C9000230384FD19C087EE90E00895209123037B
:100CA000237009F056C02091240323FF14C089E269
:100CB00090E008952091230320FD38C03091240353
:100CC00030FF09C024FF3FC090E080E008952091EC
:100CD000230322FDF7CF08952091230322FD36C080
:100CE0003091240330FD35C024FDEECFF4CF2091A8
:100CF000230323FFF0CF24FDE7CFCDCF20912303A3
:100D000023FD2AC03091240331FFEECF84EE90E022
:100D100008952091230325FDCACF08952091230330
:100D200025FD1DC02091240323FFD5CF89E390E04A
:100D300008952091230326FD15C0089520912303D3
:100D400026FD13C0089583EE90E0089582EE90E0B2
:100D5000089580EE90E0089586EE90E0089585E392
:100D600090E008958AE290E0089581E390E0B3CFA7
:100D70007A30B8F46630A8F48430B0F4E62FF0E0AE
:100D800096E0799FE00DF11D11249CE3899FE00D11
:100D9000F11D1124EE0FFF1FE455FF4F8591949133
:100DA000089580E090E0089581E0FCCF1F93CF93F9
:100DB000DF930E941406EC01C11582E5D80708F004
:100DC0003FC0C11590E5D90708F0BEC0C83ED105A7
:100DD000C0F4C03ED10580F4C53AD10548F4C43012
:100DE000D10550F4C130D10539F0D0E0C0E004C0E5
:100DF000CD3CD105D0F3D065CE01DF91CF911F91CD
:100E00000895C11580E4D80708F053C0C11590E2D9
:100E1000D90708F0B1C0C11581E0D80730F38D2F94
:100E20000E94C505182FCE0199270E941406C12FD4
:100E3000D0E0DC2FCC27CC27DF71C82BD92BDCCF1F
:100E4000C03892E5D907A8F4C03682E5D80708F083
:100E500061C0C03492E5D90708F047C0C03282E5CE
:100E6000D80778F1CF71D0E0DC2FCC27C16FD06AE2
:100E7000C3CFC03C92E5D90780F48C2F8F71C03A64
:100E8000D24508F45AC00E94C505C82FD0E0DC2F17
:100E9000CC27CC27DF71D062AFCFC03E82E5D80728
:100EA00008F0A3CFDC2FCC27CC27DF71C06FD06A2E
:100EB000A3CFCE0199270E941406CC27DF70D06AF9
:100EC000BCCF2C2F2695269590E2299F90011124C6
:100ED0008C2F8370C1E0D0E002C0CC0FDD1F8A955B
:100EE000E2F7C22BD32BDD6887CF2C2F26952695D2
:100EF000277080E2289F900111248C2F8370C1E01D
:100F0000D0E002C0CC0FDD1F8A95E2F7DC68C22B6F
:100F1000D32B72CF2C2F26952695277090E2299FF0
:100F2000900111248C2F8370C1E0D0E002C0CC0F5F
:100F3000DD1F8A95E2F7DA68EACFC82FD0E0DC2F10
:100F4000CC27C46FD06A58CF8C2F8F710E94C505F3
:100F500055E0D695C7955A95E1F7CF70D0E0DC2FD4
:100F6000CC27282F30E084FF05C044E0220F331F38
:100F70004A95E1F7D069CBCF8D2F8F710E94C505BF
:100F8000182FCE0199270E941406C12FD0E0DC2F24
:100F9000CC27CC27DF71906250CF982F909580910D
:100FA000C60289238093C6020895809174049091AB
:100FB0003B04981301C008958F5F8770FACFB0E0AB
:100FC000A0E0E5EEF7E00C9479207C01009121038C
:100FD0001091220380911F0390912003082B192B5D
:100FE000CFE0D0E0CC24C394D12CBC2EC6010C2E73
:100FF00002C0880F991F0A94E2F780239123892B5E
:1010000049F4219790F7B12C8B2DCDB7DEB7E9E0ED
:101010000C949520B7018C2F0E94B8060E94D6062A
:10102000019779F3F1CFCF93DF93EC010E94DF07B3
:10103000BE010E94B8060E94D606DF91CF910895A6
:101040009A3078F5863068F5E82FF0E086E0989FD2
:10105000E00DF11D11249E2F977083E0F695E79522
:101060008A95E1F7EE0FFF1FEE0FFF1FEC56FD4FC5
:1010700050E040E080E0219130E0092E02C036953A
:1010800027950A94E2F721703327042E01C0220F1E
:101090000A94EAF7822B4F5F5F4F4430510559F7AE
:1010A000089580E008959A3098F5863088F5E82F05
:1010B000F0E086E0989FE00DF11D11248E2F8770DF
:1010C00041E001C0440F8A95EAF783E0F695E79581
:1010D0008A95E1F7EE0FFF1FEE0FFF1FEC56FD4F55
:1010E00030E020E070E05191DF011197CB01022E3A
:1010F00002C0969587950A94E2F7817081958527BD
:10110000842385278C932F5F3F4F2430310559F777
:1011100008959093220380932103089521E030E005
:1011200002C0220F331F8A95E2F7209530958091F7
:10113000210390912203822393230E94890808951A
:101140009091BB02809589238093BB02282F277042
:1011500069F4891759F09091240392FF07C086958E
:10116000869586950E948E081092BB02089521E014
:1011700030E002C0220F331F8A95E2F780912103ED
:1011800090912203822B932B0E94890808959093BB
:10119000200380931F030895FC0124812223B9F0CA
:1011A000808191810E94130892959F70963089F0FA
:1011B00050F49250923058F4803F19F030F4883E49
:1011C00030F481E008959A50F5CF843FD1F380E068
:1011D0000895883EB0F3813FD1F7F3CFA6E0B0E0A9
:1011E000E4EFF8E00C947F2049835A8349815A81C7
:1011F0009923A1F0222391F0CA010E94DF07182F42
:10120000682F89819A810E94530869817A81812F90
:101210000E94B8062696E3E00C949B20CA010E9427
:101220002008182FF2CF0F931F93CF93DF938C01D9
:1012300080913A04843059F581E08093E9008FEF82
:101240009091E800815095FD06C095ED9A95F1F7D3
:1012500000008111F5CF8091E80085FF18C00E9441
:101260004B0381110FC0C8E0D0E08091E80085FDFC
:1012700013C08091E8008E778093E8000E944B03B2
:10128000882399F38091E8008E778093E800DF91BE
:10129000CF911F910F910895F80181918F01809353
:1012A000F100219711F7EECFCF93DF93EC010E946D
:1012B000130988E0FE01A7E2B4E001900D928A953F
:1012C000E1F7DF91CF91089580914A038823B1F02F
:1012D000539A8BB1877F9BB198602FB7F894EBE45A
:1012E000F3E034E0E731F30751F42FBF8FE594E0EA
:1012F0000197F1F700C0000010924A030895319160
:1013000048E09BB9000000C037FF8BB9330F0000E5
:1013100000C000C000C08BB900C04A9591F7E1CF72
:10132000B0E0A0E0E6E9F9E00C9478207C015B01F4
:101330006A0180910E0301E010E08A3010F40AE0A7
:1013400010E0C1E0D0E0B501C701F60109958111B7
:1013500004C021960C171D072CF4CDB7DEB7EAE0C8
:101360000C949420CC9F9001CD9F300D300D112412
:1013700090E080E045E34A95F1F70000019682177E
:101380009307C1F7E0CFB0E0A0E0E9ECF9E00C94FE
:1013900076200E94AB0560934203709343038093D1
:1013A00044039093450330917D04232F2370132F22
:1013B00016951695211101C010E020915E01213093
:1013C000D1F058F0223009F40FC1233009F416C1CE
:1013D000CDB7DEB7ECE00C949220109258016093E8
:1013E000460370934703809348039093490381E039
:1013F00080935E01EDCF9091570181E019130BC0EE
:10140000832F83702091560130E091E082171306FC
:1014100009F490E0892F817080935A0180918204B1
:1014200090915901981739F08093590140E060E09C
:1014300080E00E947505112341F0113089F0809100
:1014400058018F5F8093580133C080915A018823DF
:1014500041F140E060E080E00E94750580E021C03D
:10146000809158010E9461056C0180907E0440913A
:101470007F04E0918004F0E0E457FD4F411128C063
:10148000C4910C2FDC2FEC2CF12CED1408F491C03E
:1014900080912004882309F49EC081E021E22D156B
:1014A000E8F2909158019F5F90935801811199C083
:1014B00082E080935E0180915A01811192C01123D4
:1014C00009F49AC08091580181500E94610580CF33
:1014D000E42EF12CC4919C2EEC2FF0E026E0829EAD
:1014E000C00111242FEF30E0B9010E94F920882DAE
:1014F00090E0880F991F55E5569FD001579FB00D7A
:1015000011248A1B9B0B882E880C880ED901AE19DA
:10151000BF09AE9FC001AF9F900DBE9F900D1124DB
:10152000092F489DA0011124452F5527D901A41B3F
:10153000B50BAE9F5001AF9FB00CBE9FB00C1124F5
:10154000DB2DD901A819B109AE9DA001AF9D500DA9
:10155000BE9D500D1124452F5527241B350B2E9F62
:10156000A0012F9F500D3E9F500D11246230710538
:10157000B1F058F46115710579F06130710509F425
:1015800082CFDC2FC92F0B2D7ECF6430710571F017
:1015900048F066307105A9F7DC2FC52F74CFD92F1D
:1015A000052F71CFCB2DD92F092D6DCFD52FC92F59
:1015B000FBCFF701ED5BFD4F8081909159018923AD
:1015C00031F0202F4C2F6D2FC7010E94C104BFEFB7
:1015D000EB1AFB0A5ACF81E093E49D1508F061CF26
:1015E0003DCF11116FCFF4CE10935701832F83702D
:1015F000809356010E94640983E0FACE80917C04B6
:10160000882351F048E050E068E170E08DE794E015
:101610000E94C52010927C04C0904603D0904703DE
:10162000E0904803F090490380911F048823C1F0A3
:101630002FB7F894609175047091760480917704C7
:10164000909178042FBF6C197D098E099F09603134
:1016500071058105910508F4BBCE10925E01B8CEEC
:101660000E94AB05F0CF9091240392FB222720F932
:10167000281779F080FB92F990932403609123035B
:101680007091240384E090E00E94F32082E00E94A5
:10169000A00808958091C6029091BD02892B909177
:1016A000BC02992351F0892BECE8F2E027E090E0AE
:1016B000215029F591111092BC0280938A0248E0D2
:1016C00050E06EEB72E08AE892E00E942721892BBD
:1016D000A9F088E0EAE8F2E0AEEBB2E001900D920A
:1016E0008A95E1F7E0912104F0912204309731F0DE
:1016F0000280F381E02D8AE892E009950895319106
:101700003323B1F29F5FD4CF1092C602ECE8F2E02F
:1017100086E0DF011D928A95E9F71092BD020E94D2
:101720004A0B0895AAE2B0E0E8E9FBE00C947F20C0
:10173000E2E3F4E08091F100819324E0EA33F207E0
:10174000C9F780913304833009F47DC008F58130F6
:1017500009F454C0823009F4BEC08091E80083FFD0
:10176000F8C080913204909133049A3008F0F1C0AF
:10177000E92FF0E0E254F44F0C9421217C0CA20CF0
:10178000A90CA20CA90CFA0C1C0DA90C080E150E24
:101790008A3009F48FC08B3009F472C08930E9F6C1
:1017A000809132048132C9F68091360490913704D9
:1017B000892B99F68091E800877F8093E8008091DB
:1017C000E80082FF3BC08091F3009091F2008927EE
:1017D00098278927029731F48091F100813011F028
:1017E000863021F48091F100809326048091E800F6
:1017F0008B778093E8000E947A03AFCF8091320408
:10180000813A09F0AACF8091E800877F8093E800B1
:101810008091360490913704892B61F060E090E06C
:1018200080E070E00E9499038091E8008B778093BC
:10183000E80093CF68E087E294E0F3CF80913A0428
:101840008111BDCF8ACF80913204813A09F085CFD2
:101850008091360490913704892B09F07ECF8091D6
:10186000E800877F8093E8008091E80080FFFCCF4C
:1018700080915D018093F1008091E8008E77B9CF6F
:1018800080913204813209F068CF809136049091C2
:101890003704892B09F061CF8091E800877F80931E
:1018A000E8000E947A038091340480935D010E94D5
:1018B000840B53CF80913204813209F04ECF809156
:1018C000E800877F8093E8000E947A0380913504C6
:1018D0008093250442CF80913204813A09F03DCFB4
:1018E0008091E800877F8093E8008091E80080FF86
:1018F000FCCF80912504BECF803889F0823849F52D
:10190000809136048F70873020F58093E9008091B4
:10191000EB0085FB882780F91092E90006C08091D2
:101920002F0490913004911182609091E800977F8C
:101930009093E8008093F1001092F1008091E8000C
:101940008E7727C0282F2D7F21F48823A1F08230A5
:1019500029F18091E80083FF0AC08091E800877F29
:101960008093E8008091EB0080628093EB00AA9660
:10197000E3E00C949B2080913404813051F7933044
:1019800009F080E0809330041092E9008091E80033
:10199000877F8093E8000E947A03DBCF8091340434
:1019A0008111F2CF809136048F702FEF280F2630EF
:1019B00080F68093E9002091EB0020FFE5CF933083
:1019C00031F48091EB0080628093EB00DDCF909149
:1019D000EB0090619093EB0021E030E001C0220F1A
:1019E0008A95EAF72093EA001092EA008091EB00D2
:1019F0008860EACF8111ADCF109134041F778091B8
:101A0000E3008078812B8093E3008091E800877F5A
:101A10008093E8000E947A038091E80080FFFCCF69
:101A20008091E30080688093E30083E0111101C09E
:101A300082E080933A048DCF8058823008F089CFBD
:101A400080913404909135048C3D23E09207A1F5F8
:101A500083E08A838AE289834FB7F894DE01139684
:101A600020E03EE051E2E32FF0E050935700E49194
:101A700020FF03C0E295EF703F5FEF708E2F90E084
:101A8000EA30C0F0C7968D939D932F5F243159F7AC
:101A90004FBF8091E800877F8093E8006AE270E0A2
:101AA000CE0101960E9499038091E8008B77809384
:101AB000E8004FCFC096E7CF4091360450913704ED
:101AC000292F33272330310509F43FC078F5213021
:101AD000310509F465C082E290E0E0EDF3E02230E8
:101AE000310509F036CF2091E800277F2093E800E8
:101AF00020913804309139048217930708F49C012F
:101B000040E02115310509F050C041114EC08091CF
:101B1000E80082FDC9CF80913A04882329F28530FC
:101B200019F28091E80083FFF2CFBECF2132310558
:101B300079F12232310509F00CCF452B09F009CF9C
:101B400084E490E0ECE8F3E0CECF99278130910572
:101B5000B9F058F0029709F0FCCEE4E0F4E0E4912B
:101B60008E2F90E0E4E0F4E007C0E6E4F4E0E491D6
:101B70008E2F90E0E6E4F4E0009709F4EACEB3CFCC
:101B8000ECE2F4E0E4918E2F90E0ECE2F4E0F4CFAC
:101B9000452B09F0DECE89E090E0E2EEF3E0A3CF42
:101BA00082E190E0E2EFF3E09ECF80913A04882357
:101BB00009F47ACF853009F477CF8091E80083FD6E
:101BC00073CF8091E80082FDA2CF8091E80080FF72
:101BD00098CF8091F3009091F20089279827892768
:101BE0002115310519F08830910550F041E0089732
:101BF00009F040E08091E8008E778093E80081CF83
:101C000044914093F1003196215031090196E8CF7B
:101C1000803809F09ECE8091E800877F8093E800AD
:101C2000809131048093F10089CE811192CE109180
:101C30003404123008F08DCE8091E800877F8093C5
:101C4000E800109331040E947A03112351F084E0DC
:101C500080933A0461EC81E00E948D0280913A0405
:101C600078CE8091E30087FDF2CF81E0F1CF0E9432
:101C7000840B2FEF84E39CE0215080409040E1F7FB
:101C800000C0000088E19CE00FB6F894A89580930E
:101C900060000FBE90936000FFCF882321F00E9468
:101CA000CD070E944A0B0895882339F09091C6020F
:101CB000892B8093C6020E944A0B0895882391F0D5
:101CC0009CEF980F913A78F4EAE8F2E020E932E0EC
:101CD0009281891301C0128231962E173F07C1F7F6
:101CE0000E944A0B089590E2980F9830D8F78770B9
:101CF00091E001C0990F8A95EAF7892F0E94CD07DC
:101D0000EFCFCF938823B9F0C82F8CEF8C0F813A97
:101D100000F5ACE8B2E0EAE8F2E08D91C81769F0AE
:101D200082E0A239B807C9F76C2F8AE892E00E94D6
:101D300016040E944A0BCF9108958281C81301C0F6
:101D40001282319682E0E039F807B9F70E944A0B17
:101D5000EBCF80E28C0F883070F7C77021E030E065
:101D600001C0220FCA95EAF78091C602822B8093A8
:101D7000C602DFCFA4E0B0E0E0ECFEE00C947F20F0
:101D80004091060350910703609108037091090385
:101D90002FB7F8948091750490917604A091770400
:101DA000B09178042FBF841B950BA60BB70B11E0E5
:101DB00084369105A105B10570F10E94AB056E5FF7
:101DC0007F4F8F4F9F4F69837A838B839C83809152
:101DD0003101909132018B519D4F4091300150E083
:101DE0004530510510F044E050E0BE016F5F7F4F79
:101DF0000E94342186E090E00E94F91F182F88236A
:101E000051F00E94FE0360930603709307038093D2
:101E1000080390930903812F2496E3E00C949B2000
:101E2000B0E0A0E0E6E1FFE00C947620FB018080CA
:101E30009180A280B3809FB7F894C0907504D09031
:101E40007604E0907704F09078049FBFC818D90812
:101E5000EA08FB0894E6C916D104E104F10418F479
:101E6000C1E0442341F1C82F880FDD0BDE0183E080
:101E7000AA0FBB1F8A95E1F7A050BF4F11968D9115
:101E80009C9112978B519D4F4C9150E00417150770
:101E900008F4A801B9018F010E943421CE010E94EB
:101EA000F91FC82F882339F00E94FE03F8016083D0
:101EB0007183828393838C2FCDB7DEB7ECE00C94D3
:101EC0009220A9E0B0E0E7E6FFE00C947E2088E0F5
:101ED000EDE7F4E0DE01119601900D928A95E1F7AD
:101EE000198649E050E06DEF72E0CE0101960E9444
:101EF000272141E0892B09F440E009E010E09E0130
:101F00002F5F3F4F6AE073E087E00E94100F299631
:101F1000E4E00C949A200F931F93CF93DF93EC018E
:101F200045E050E06BEE72E00E94272141E0892BF2
:101F300009F440E005E010E09E016CED72E082E003
:101F40000E94100FDF91CF911F910F910895A1E092
:101F5000B0E0EDEAFFE00C947420C62E4A0159016E
:101F6000682E880F7708C3010E94F91FD82E882396
:101F700009F474C0C30123E0880F991F2A95E1F783
:101F8000FC01E050FF4F438150E04115510511F035
:101F900041E050E080509F4FFC01648175816B519E
:101FA0007D4FCE0101960E943421F4014081518180
:101FB000628173812FB7F8948091750490917604B3
:101FC000A0917704B09178042FBF841B950BA60BCA
:101FD000B70B84369105A105B10538F4B701C801E6
:101FE0000E94410499818917C9F10C2C000CDD086D
:101FF000C6010E94F91F782E8823C9F0960183E05C
:10200000220F331F8A95E1F7F901E050FF4F43811A
:1020100050E0E416F50608F4A70120503F4FF901FF
:10202000648175816B517D4FC5010E943421B701D8
:10203000C8010E94410491E02981281390E0D92E23
:10204000D72039F00E94FE03F401608371838283FC
:1020500093838D2D2196EEE00C949020A701B8017A
:10206000C5010E943421F5CFA8E0B0E0EAE3F0E139
:102070000C947C2088E0E82EF12C01EF12E09E0108
:102080002F5F3F4F41EE52E064E083E00E94A70FD4
:10209000082F882389F19091F0028091E00298172F
:1020A00059F110E09091F4028091F3028917F1F058
:1020B000E92FF0E0E751FD4F848587FB662760F943
:1020C0009F5F93709093F4029091F2029F5F9093C0
:1020D000F2028F770E949604182F8111E3CF85E0DA
:1020E00090E00E94F91F012F082302C01111F7CFC1
:1020F0008091F0028093E002802F2896E6E00C9415
:102100009820A5E0B0E0E7E8F0E10C947A206B01BC
:1021100085E0E82EF12C06EE12E09E012F5F3F4F86
:1021200048ED52E061E080E00E94A70F882349F06B
:1021300095E0FE013196A3EDB2E001900D929A95E3
:10214000E1F795E0E3EDF2E0D60101900D929A956A
:10215000E1F72596E8E00C949620AFE0B0E0E3EBE1
:10216000F0E10C9474208E010F5F1F4F8AE0F8019C
:1021700011928A95E9F790E4E92E91E0F92E9924DD
:102180009394CC24C394D12C3BE4A32E31E0B32E02
:10219000F70181917F018F3F09F447C0F894E82F40
:1021A000E295EF70F0E021A18F70A60102C0440F0C
:1021B000551F8A95E2F7CA01922F982B91A392A1FD
:1021C0008095892382A3789400C086E4682E81E0FC
:1021D000782ED801692D6095F30191913F018D9181
:1021E0009D01215031099F3F09F49FC0492F42951D
:1021F0004F7050E0FA0140A150E09F7002C0559529
:1022000047959A95E2F740FD90C08929F9018083AE
:10221000A614B70409F7F701319780818F3F11F0B9
:102220000E949405F0EAFA95F1F7990C26E4E2167B
:1022300021E0F20609F0ACCF4AE050E0B80183E1BA
:1022400093E00E942721892B09F414C18AE0F80148
:10225000A3E1B3E001900D928A95E1F781E08093CC
:10226000CB020E940A049093CA028093C902C12C37
:10227000D0901F0400911E0310E00B5D1C4FDD2069
:1022800009F497C07E014BE0E40EF11C85E0F701F4
:1022900011928A95E9F780910E038A3008F049C0BF
:1022A00041E850E1B701C8010E949009882309F470
:1022B0006DC04BE85FE0B701C8010E949009882318
:1022C00009F464C044E350E1B701C8010E949009D9
:1022D000882309F45BC04AEB5EE0B701C8010E94A5
:1022E0009009882309F452C041E65FE0B701C801B4
:1022F0000E949009882309F449C010920E0380912E
:102300001D0390E045E050E0B7018B5D9C4F0E94BB
:10231000272121E02093D202892B59F5D12C8D2D34
:102320008C292F96EEE00C94902086236FCFC12C41
:10233000D1C02091CC023091CD024FB7F89480915A
:10234000750490917604A0917704B09178044FBF02
:10235000821B930B843F914008F0A2CF8091D20260
:102360008823E1F285E0F70111928A95E9F710924E
:10237000D202A0911D03B0E0AB5DBC4F85E0FE0131
:102380003B9601900D928A95E1F7C9CF80910E039B
:102390008F3F19F08F5F80930E0380910E038A3078
:1023A00008F4ADCF0E940A049093CD028093CC0232
:1023B000D5CFE0901D03F12CA7014B5D5C4F7A0156
:1023C00085E0F801A6EEB2E001900D928A95E1F762
:1023D00065E070E086EE92E00E9441048093E502A1
:1023E00085E0EBEEF2E0D70101900D928A95E1F7DE
:1023F00088E0E7E1F4E0A1EFB2E001900D928A9568
:10240000E1F768E070E081EF92E00E944104809380
:10241000F0028090F9029090FA02A090FB02B09036
:10242000FC028091CE029091CF02A091D002B09197
:10243000D10288169906AA06BB06B1F08092CE0298
:102440009092CF02A092D002B092D1020E94FE03DD
:10245000861A970AA80AB90A80920F03909210036D
:10246000A0921103B092120388E0EDEFF2E0ADE725
:10247000B4E087CFC090CB02CC2009F4F8CE009115
:102480001E032091C9023091CA024FB7F89480917F
:10249000750490917604A0917704B09178044FBFB1
:1024A000821B930B059708F4E2CE10E00B5D1C4FE6
:1024B00045E050E063E173E0C8010E942721892BC9
:1024C00009F435CF85E0E3E1F3E0D80101900D9206
:1024D0008A95E1F71092CB02CBCE1F93CF93DF9377
:1024E000182FEB010E94810E209739F4812F0E9452
:1024F0005E0EDF91CF911F9108958FE99FE00197C4
:10250000F1F700C000002197EFCF0F931F93CF93F7
:10251000DF93C62FD42F122FFC0185818823A9F0C9
:1025200060937B040E940A0490937A048093790458
:10253000C77081E001C0880FCA95EAF70E94540E67
:10254000DF91CF911F910F91089580917B046813C3
:1025500040C02091790430917A044FB7F89480916B
:10256000750490917604A0917704B09178044FBFE0
:10257000821B930B883C910560F500E20D0F6D17EF
:10258000B9F080E2860F883040F4C77081E001C066
:10259000880FCA95EAF70E944D0E083008F581E0D1
:1025A0009D2F977001C0880F9A95EAF70E94540EEC
:1025B00070E060E0812F0E946D12083008F0C0CFFB
:1025C000D77081E001C0880FDA95EAF70E944D0EBE
:1025D000B7CFC77081E001C0880FCA95EAF7F6CF80
:1025E00070E060E0812F0E946D12AACFB0E0A0E001
:1025F000ECEFF2E10C947920FC018481882389F1CD
:102600008F0121E0408151816281738195810E9417
:10261000EE08EC01FC01E851FC47E730F10508F059
:102620003CC0EB5EFC4E0C9421213A133E131C136C
:102630003613421346134A1326E241EE61EEC801F7
:102640000E9485128091BB02877059F0F801858144
:10265000882339F08091240382FF03C082E00E9426
:10266000A008CDB7DEB7E9E00C94952027E245EE4F
:1026700065EEE5CF26E241EE60EEE1CF27E245EEE2
:1026800064EEDDCF26E241EE62EED9CF27E245EEE1
:1026900066EED5CF28E241E0EBCFF80185818823B3
:1026A00009F402C410927B04CE019057839708F07E
:1026B000E3C384E090E00E94BF20909324038093C2
:1026C0002303FE01E150F047E232F10508F026C095
:1026D000E459FC4E0C942121C8133D14D0139A13D5
:1026E0009E13D413A213D813E413AE133614B213EB
:1026F000E813B613EC131414BA13F0131B14C0131D
:10270000F613FE13A613DC13AA13E013C413FA1373
:102710000A14241434149413CC1344148091230306
:1027200081608093230395C0809124038860809307
:1027300024038FC0809123038260F3CF8091230311
:102740008460EFCF809123038860EBCF80912403D6
:102750008160EDCF809124038260E9CF80912303D3
:102760008061DFCF809123038062DBCF80912303E0
:102770008064D7CF0E94840B809123038068D1CFDF
:10278000809123038860DCCF809124038260E0CFB6
:10279000809123038E7FC5CF80912403877FC7CF8D
:1027A000809123038D7FBDCF809123038B7FB9CF91
:1027B00080912303877FB5CF809124038E7FB7CF8D
:1027C000809124038D7FB3CF809123038F7EA9CF87
:1027D000809123038F7DA5CF809123038F7BA1CF91
:1027E0000E94840B809123038F779BCF80912303DA
:1027F000877FDCCF809124038D7FE0CF80912303FE
:1028000082FB992790F921E0922790FB82F990FBB7
:1028100083F987CF80912403982F909591708E7FB4
:10282000892B90FB81F983CF90912303892F8F7B94
:1028300096FF806476CF0E94840B90912303892FAA
:1028400097FB87F980586DCF61E08EE090E00E94A1
:10285000D520609123037091240384E090E00E94CE
:10286000F3200E94840BEECE60E0EFCF9091230323
:10287000892F8F7E94FF806154CF90912303892FFD
:102880008E7F90FF81604DCF90912403892F877FA9
:1028900093FF88604CCF89E2EAE8F2E020E932E079
:1028A0009281891301C0128231962E173F07C1F71A
:1028B000F8C280917D0491E0892780937D04109275
:1028C0005E0180917C04816080937C04BBCE43E5F3
:1028D00055E06DE575E00E94BB04B4CE4DE555E0D2
:1028E00063E575E0F8CF4FE355E069E475E0F3CFB9
:1028F00049E455E06FE375E0EECF45E255E062E371
:1029000075E0E9CF42E355E065E275E0E4CF4BE0E6
:1029100055E068E175E0DFCF48E155E06BE075E038
:10292000DACF4FEE54E06DEF74E0D5CF4DEF54E0C9
:102930006FEE74E0D0CF81E00E945F0283CE0E94F0
:10294000840BFFEF24E38CE0F15020408040E1F75E
:1029500000C0000081E08093E00080E28093D80016
:102960001092C900EFE1FEE43197F1F700C00000DA
:1029700087E090EBDC018093850490938604A0931C
:102980008704B093880488E19CE00FB6F894A8957A
:10299000809360000FBE90936000FFCF6FEF7FEFDA
:1029A00090E080E00E94F3200E94370E8091240383
:1029B00082FB882780F991E089270E94330BF80178
:1029C0008581C081D181882309F456C0CE010E943F
:1029D000DF07F82E682FCE010E945308BE018F2D0D
:1029E0000E94B8060E94D606D82FC92FB82EF8012B
:1029F000D580C680C2942FE0C2228091BB0287702E
:102A000009F1ED2CDD20F9F0892F807F803469F009
:102A100080E28D0F8830B0F0892F807E803229F4DB
:102A2000F1E0FD1778F4CC2069F08091240382FF57
:102A300009C082E00E94A0088091BB028770EE244A
:102A4000E3948111E12CEC2FE295EF70EC3008F06B
:102A500078C0F0E0E25DFA4E0C9421214115411559
:102A600079157915A115A115A115A1151816A1168D
:102A7000B216B21680E0A1CFCE010E942008F82E37
:102A8000ADCF2C2F2F70F22EC07F19F0F29490EF63
:102A9000F9228D2FDD20B9F0FF2069F090E29D0F23
:102AA000983010F0D11109C08091C602F82AF09236
:102AB000C6020E944A0B8D2F42C08091BD02F82AA7
:102AC000F092BD02F6CF0E945E0EFF20D1F1D05EE3
:102AD000D83010F0B11004C08F2D0E94CD0706C071
:102AE000F0948091BD02F822F092BD020E944A0B40
:102AF00028C08C2F8F70F82EC07FC03219F0F2944E
:102B000080EFF822BB2059F091E0B91609F470C0AB
:102B1000DD2009F47CC0CC2009F43FC0CCCF8091EB
:102B2000240382FD36C0DD2071F1FF2039F0809151
:102B3000C602F82AF092C6020E944A0B80E00E9468
:102B4000810EEE20A9F08091BB0280FD11C0F8013A
:102B500015828695869586950E94B708C8010E94C1
:102B6000F6128091BB028695869586950E948E0806
:102B700020E0F801408151816281738184819581D7
:102B80000E94EE086ECD80E00E945E0EFF20C9F22A
:102B9000A3CFDD2099F0C11004C08F2D0E94540EE8
:102BA000D0CFE1E0CE12CDCF8091BC029F2D9823F3
:102BB000F91639F2F82AF092BC02C3CFC110C1CF86
:102BC0008F2D0E944D0E9091BC028F2D892329F0EC
:102BD0008F2D809589238093BC02809193029F2D35
:102BE000982309F4AECFF094F822F0929302A9CF83
:102BF000DD2029F0F5E0FC1508F4A3CFCECF24E0CA
:102C00002C1508F49ECF8F2D0E944D0E9ACFCC200C
:102C1000D1F3D93349F48FEF97EEE3E08150904040
:102C2000E040E1F700C000008D2F0E945E0E89CFCA
:102C30008C2F837009F041C0D1102EC04D2F4295CA
:102C400046954770440F440F2D2F2F7030E0042E0F
:102C500002C0220F331F0A94E2F790E080E0D4FF15
:102C600009C08FE090E002C0880F991F4A95E2F7F3
:102C700080959095C695C695C370C230A9F088F42A
:102C800040911F0350912003C13049F0822B932BB8
:102C9000842395230E94C7080E94300452CF242B1E
:102CA000352B822B932BF6CF822B932B20911F0356
:102CB0003091200382279327EDCF8695DD2011F0F8
:102CC0008C2F8170882341F34D2F42954695477094
:102CD000440F440F2D2F2F7030E0042E02C0220F1E
:102CE000331F0A94E2F790E080E0D4FF09C08FE040
:102CF00090E002C0880F991F4A95E2F78095909561
:102D0000C695C695C370C23099F078F440912103FE
:102D100050912203C13039F0822B932B84239523C9
:102D20000E948908B9CF242B352B822B932BF8CF07
:102D3000822B932B2091210330912203822793270A
:102D4000EFCFCF70DD2039F08C2F0E94B7088D2F88
:102D50000E94540EA1CF8D2F0E944D0E8C2F0E94E9
:102D60008E089ACF8D2FF2EFBF16A9F1FB1580F0D8
:102D700020EFB216E1F091EFB916A1F0DD2009F4D1
:102D800060C0CC2009F45AC08D2F0E94810E84CFE0
:102D9000E3EFBE1639F1F4EFBF12F0CF80912403B8
:102DA00082FD2EC08C2F8F71DD20C9F218C0DD206E
:102DB00069F024E02C1508F46FCFCF7181E090E02A
:102DC00002C0880F991FCA95E2F7B4CF85E08C1531
:102DD00008F462CFF2CF8C2F8F71D110C0CF0E9438
:102DE000B7085ACF90E080E0DD2009F499CFCF7189
:102DF00081E090E002C0880F991FCA95E2F790CF5A
:102E0000DD2089F0CF718C2F0E94B70880912403B8
:102E100082FF07C0E8E0CE9FC00111248360809349
:102E2000BB028C2FDCCF81E00E94A008F1E0FC15F2
:102E300008F032CF82E00E94A0082ECF8C2F8F7135
:102E4000CECFCC2079F0893349F42FEF87EE93E091
:102E5000215080409040E1F700C000008D2F0E947B
:102E60005E0E1ACF8C2F8F717ACF809192028823B9
:102E700009F411CD85E310CDC631FCE7DF0709F079
:102E80003AC08091C6028A7A91E009F490E090936A
:102E9000920265E3811101C069E28AE892E00E9432
:102EA00016040E944A0BCECBC6312CE7D207E9F2BA
:102EB0008091C6028272FE01E052F847E531F105C9
:102EC00008F07DCDEA59F84E0C942121591467146D
:102ED0006E14731478147D14821487148C14911456
:102EE00096149B142213221322132213221322134B
:102EF000221322132213C3308CE7D80709F44ECDD6
:102F000050F4C115ECE7DE0709F419CDC130DC47F8
:102F100009F44ACD54CDCB352CE7D20709F4AACD1C
:102F2000CC358CE7D80709F441CDCA35DC4709F028
:102F300046CD81E042CDCF93DF938091BA02807F6E
:102F400009F04DC08091B902882309F448C0E0918E
:102F5000740450913B04C091B502D091B4026091C9
:102F6000B6027091B70247E05E17C9F18E2F90E06C
:102F7000E49FF0011124E45CFB4F2481222391F1B2
:102F8000489FF001499FF00D1124DF01A45CBB4F65
:102F900011962C9111972C1325C02C912D1322C022
:102FA00015962C91159721111DC012962D913C91CB
:102FB000261B370B283C3105A8F48091BA028F708C
:102FC00080618093BA02EE5BFB4F80818F708061DD
:102FD000808384EB92E00E94F6120E94D507DF9175
:102FE000CF910895FC013196E770BECFA4E1B0E027
:102FF000ECEFF7E10C9476208C0186E0F801DE011D
:103000001F9601900D928A95E1F7F8018481E58081
:1030100094EBA92E92E0B92E9091B802911128C09C
:10302000882319F1EE20F1F0C8010E94CC08F82E97
:103030008823C1F087E0F801D50101900D928A95AF
:10304000E1F78091B802813031F48091B40290911F
:10305000B5020E9413080E949B178F2D6496ECE026
:103060000C949220C8010E94F612FF24F394F5CF2D
:10307000D080C18082809380F090B9022091B60206
:103080003091B702A401421B530BFF2009F4D8C0B2
:10309000483C510508F091C08823F9F29091B5029F
:1030A0008091BA02282F207F09F055C0C91214C0A0
:1030B0009091B402D91210C0E11047C08F708061A6
:1030C0008093BA0284EB92E00E94F6128091BA02D9
:1030D000F8018683F12CC1CFE11037C06C2D8D2D06
:1030E0000E946E026C2D8D2D0E946E02E82E8111C1
:1030F000F1CFDF86C88A8F8598890E941308292F0F
:1031000022952F70243058F49F70223080F099233C
:1031100091F0F8019681907F71F4FE2C9ECF2A5099
:10312000223068F0C8010E94F612EF2CF6CF9923E6
:1031300011F0882391F3805E8830A0F7EECF803FB6
:1031400060F3815F833070F7E8CF8091BA028160CD
:103150008093BA02BFCFC91207C09091B402D912AE
:1031600003C0EE2009F48DC0C8010E94CC0888235A
:1031700009F478CFEE2009F475CF8091BA0280323D
:1031800088F02091B4023091B502398728879B8658
:103190008A869091B8029C871D868E87CE010896FC
:1031A0000E94F61287E0F801A4EBB2E001900D92C4
:1031B0008A95E1F70E949B1758CF9091BA02292F68
:1031C000207F51F484EB92E00E94F61287E0F50133
:1031D00011928A95E9F77ECF882309F43ECF80913A
:1031E000B5028C1110C08091B402D8120CC0E1104D
:1031F0000AC09683C8010E94F61287E0F501119279
:103200008A95E9F72ACFC8010E94CC08882309F4DF
:1032100029CFEE2009F426CF8091BA02803210F235
:103220002091B4023091B5023A8329839C828B822B
:103230009091B8029D831E828F83CE010196B0CFFC
:10324000483C5105D0F6882309F40FCFFE2CEE2020
:1032500009F408CF8091B5028C1120C08091B4028E
:10326000D8121CC08091BA0280FD0FC0982F907FA9
:1032700061F08683903F31F0982F907F905F8F7040
:10328000892B8683C8010E94F61287E0F801A4EB1F
:10329000B2E001900D928A95E1F7DFCEC8010E945D
:1032A000CC0881117FCF8091BA0281608093BA02ED
:1032B000C8010E94F612D1CEABE1B0E0E2E6F9E13E
:1032C0000C947E204E8B5F8B688F798F8A8F9B8FBB
:1032D000192F91111092BD021D8A86E0FE0176968B
:1032E000DE011F9601900D928A95E1F70A8D002369
:1032F00041F021E04F85588969897A89C8010E9487
:10330000EE080B8B1C8B87E0FE013F96DE011896C2
:1033100001900D928A95E1F7CE0108960E94F6176A
:1033200081112AC087E0FE013896DE0111960190D6
:103330000D928A95E1F78C858823F1F020913B046A
:1033400030E0C901019687709927409174044817AD
:10335000190659F197E0929FD001939FB00D112467
:10336000A45CBB4FFE01319601900D929A95E1F756
:1033700080933B040E94D50717E0809174049091DC
:103380003B048917F9F0819FC0011124845C9B4F95
:103390000E94F6178823B1F08091740490E00196A2
:1033A0008770992780937404E8CF0E94840B109251
:1033B0003B041092740487E0E4EBF2E0DF011D921D
:1033C0008A95E9F76B96E4E00C949A20A6E0B0E0C9
:1033D000ECEEF9E10C947E200E940A048C018091AD
:1033E000C7029091C8028017910781F019821A8252
:1033F0000E940A04682F49815A81792F80E090E069
:103400000E945C191093C8020093C7022696E4E05C
:103410000C949A2080E090911A04209119042917A5
:1034200039F1E92FF0E0E55EFB4F808187FB222731
:1034300020F98F779F5F937090931A0490911804EE
:103440009F5F90931804882349F0813079F470E0ED
:1034500060E08EE4211108C08BE406C070E060E0FB
:1034600089EA211101C08AEA0E946D1281E0D3CF5E
:1034700008951F920F920FB60F9211242F933F932E
:103480004F935F936F937F938F939F93AF93BF936C
:10349000CF93EF93FF93C091E900CF708091EC0040
:1034A0001092E9008091F000877F8093F00078947B
:1034B0000E94920B1092E9008091F0008860809346
:1034C000F000C093E900FF91EF91CF91BF91AF91D0
:1034D0009F918F917F916F915F914F913F912F912C
:1034E0000F900FBE0F901F9018951F920F920FB65E
:1034F0000F9211242F933F934F935F936F937F937A
:103500008F939F93AF93BF93EF93FF938091E100CD
:1035100082FF09C08091E20082FF05C08091E10036
:103520008B7F8093E1008091DA0080FF24C080913E
:10353000D80080FF20C08091DA008E7F8093DA006F
:103540008091D90080FF9AC080E189BD82E189BD68
:1035500009B400FEFDCF81E080933A0480912404F9
:10356000811109C00E94D2020E94F1028091E20002
:1035700084608093E2008091E10080FF17C0809119
:10358000E20080FF13C08091E2008E7F8093E20012
:103590008091E20080618093E2008091D800806297
:1035A0008093D80019BC85E080933A048091E100B3
:1035B00084FF29C08091E20084FF25C080E189BD9D
:1035C00082E189BD09B400FEFDCF8091D8008F7DD6
:1035D0008093D8008091E1008F7E8093E1008091FC
:1035E000E2008F7E8093E2008091E2008160809310
:1035F000E20080913104882309F446C084E080937E
:103600003A0480913A048091E10083FF26C08091C2
:10361000E20083FF22C08091E100877F8093E10078
:1036200082E080933A04109231048091E1008E7F11
:103630008093E1008091E2008E7F8093E200809190
:10364000E20080618093E20060E080E00E948D02F1
:103650008091F00088608093F000FF91EF91BF911E
:10366000AF919F918F917F916F915F914F913F911A
:103670002F910F900FBE0F901F90189519BC1092AC
:103680003A041092240477CF8091E30087FD02C0B2
:1036900081E0B5CF83E0B3CF78941F920F920FB63D
:1036A0000F9211248F939F93AF93BF9380917504D2
:1036B00090917604A0917704B09178040196A11DB1
:1036C000B11D8093750490937604A0937704B09312
:1036D0007804BF91AF919F918F910F900FBE0F9083
:1036E0001F9018951F920F920FB60F9211248F936F
:1036F0009F93AF93BF9380912304811113C0809156
:10370000750490917604A0917704B0917804419665
:10371000A11DB11D8093750490937604A093770446
:10372000B0937804BF91AF919F918F910F900FBE8E
:103730000F901F901895ADE0B0E0E1EAFBE10C942A
:10374000702085B7806885BF85B7806885BF84B7DE
:10375000877F84BF0FB6F894A89580916000886138
:1037600080936000109260000FBE80E890E00FB67A
:10377000F89480936100909361000FBE8EE895E00D
:1037800090938902809388020E94D2020E94F102E3
:103790008091E20084608093E200789480913A0402
:1037A000882399F01091E9001F708091EC0080FD52
:1037B000FCC180E0182B1092E9008091E80083FDA5
:1037C0000E94920B1F701093E90082E084BD93E089
:1037D00095BD9AEF97BD80936E0010920F031092E3
:1037E000100310921103109212038091D80080618F
:1037F0008093D8002AE12A95F1F700C08091D90082
:10380000182F117080FD04C00E94D20210923A0459
:1038100010931F0485988D988FE891E00197F1F738
:1038200000C000008FB185FB882780F980932004B9
:1038300080934B0180911F0481110E940D1FE7E1CD
:10384000F4E088E0DF011D928A95E9F780914B0151
:1038500091E0892780933C0380914B0190933F0333
:1038600080914B0180914B01811106C087EF8093BD
:103870005B0186EF80935C0160E080E00E9473044E
:1038800061E080E00E947304EFE8F1E03197F1F726
:1038900000C0000010E080913F03181708F487C1B2
:1038A00080914B0181112CC085E0EFE5F1E0DE0154
:1038B000199601900D928A95E1F7898580934601CA
:1038C0008A85809347018B85809348018C858093FE
:1038D00049018D8580934A0186E0E4E6F1E0DE014E
:1038E000119601900D928A95E1F7FE013196A0E4C0
:1038F000B1E0CE01079621912D93E817F907D9F78A
:1039000080914B0195E0811190E090931E0385E03A
:10391000891B80931D0300E411E0D8018D918D0176
:103920008F3F11F00E949405B1E006341B07A9F700
:1039300006E411E06BE4E62E61E0F62EF8018191D9
:103940008F018F3F11F00E949405E016F106B1F748
:103950008AE0E5E2F3E0DF01282F1D922A95E9F7DE
:10396000E3E1F3E0DF011D928A95E9F790E080E062
:103970000E94BF20863E9E4F09F466C066EE7EEF31
:1039800090E080E00E94F32060E082E090E00E94FE
:10399000D52081E090E09093200380931F0361E0A5
:1039A00083E090E00E94D52060E074E184E090E044
:1039B0000E94F32060E086E090E00E94D52060E065
:1039C00087E090E00E94D52040E050E0BA0188E016
:1039D00090E00E94E72060E084E290E00E94D52021
:1039E00060E087E190E00E94D52060E08CE090E00C
:1039F0000E94D52060E08DE090E00E94D5201982E1
:103A00001A821B821C821D821E821F82188648E039
:103A100050E068E170E0CE0101960E94C52040E0D0
:103A200050E0BA0180E290E00E94E72040E050E0E0
:103A3000BA018FE090E00E94E72040E050E0BA0138
:103A400083E190E00E94E72082E090E00E94B720AE
:103A500080932F0384E090E00E94BF209093240382
:103A60008093230383E090E00E94B72090E00E94BF
:103A7000C7080E94EC0481E080937C0448E050E099
:103A800068E170E08DE794E00E94A72010927C042A
:103A900080917D048C7FF9F485E080937D04809192
:103AA0006A0190916B01A0916C0180937E049093C8
:103AB0007F04A09380048FE7809381048FEF80932D
:103AC000820448E050E068E170E08DE794E00E94F5
:103AD000C52010927C0480911F04811102C00E94B5
:103AE000101F8CE491E0909322048093210408E15C
:103AF00010E040E4942E8824839454E0E52EF12CC9
:103B000080913A0420E1C22E32E1D32E853009F4AF
:103B100096C00E94AD1080E3C82E83E0D82E95E2B7
:103B2000A92E93E0B92ED501F60191918D9143E034
:103B3000EA33F40709F48DC09817B9F320901F04F5
:103B4000712CD5016D905D01F60131906F01361435
:103B500029F1512C442443943624832D8421B1F03F
:103B60002220A1F059827A820E940A049C838B83CE
:103B70008D8291E0842D862109F490E09E83498115
:103B80005A816B817C818D810E945C195394440C15
:103B9000F6E05F12E2CFF6013197608273942AE07B
:103BA0007212CFCF0E94AB0558C080E803CE60E010
:103BB000812F0E945704082F61E0812F0E94570433
:103BC000E12FF0E0E35CFC4F880F802B80831F5FC8
:103BD00062CE80913A04843019F10E94C309109298
:103BE00023040FB6F894A895009360000FBE90923E
:103BF000600083B7817F846083BF83B7816083BFA8
:103C00007894889583B78E7F83BF0FB6F894A89574
:103C100080916000886180936000109260000FBE08
:103C200080913004882359F00E94AD10E5E2F3E062
:103C30008191811182C023E0EF32F207C9F78091B0
:103C40003A04853009F4C5CF0E94840B0E943004E9
:103C500060CF981373CF0E94E6190E94C309C090E9
:103C60001F04CC2019F00E940A1AC82E809140032C
:103C7000882351F0109240038091190480931A0414
:103C80008091170480931804D12C80913F03D8169B
:103C9000B0F080911F04882319F00E940A1AC82AE4
:103CA000C1100E94AB050E94300490914103891716
:103CB00009F426CF809341030E94FE0321CF61E0E7
:103CC0008D2D0E945704B82E60E08D2D0E94570460
:103CD000EB2DEE0F8E2B2D2D30E0D901A35CBC4FC8
:103CE000EC919E2F9370891731F1EE0FEE0FE82BB8
:103CF000EC9380913C038D0DEF70F0E0E159FE4FA5
:103D0000A901465C5C4F5A017080DA019C91790EE2
:103D10007C92B3E060E0B71524F0EDEF7E161CF462
:103D200061E00E949604872D770C990BB7010E94E1
:103D30000D21D5018C93D394A8CFC9BCD9BC09B4AB
:103D400000FEFDCF8091D8008F7D8093D8008091B8
:103D5000E00082608093E0008091E00081FDFCCF74
:103D60000E94840B6CCF8EE14A9B02C08150E1F728
:103D70004A9BFECF08955A9880E28A95F1F75A9AA5
:103D80000895FC013BE03A95F1F798E020E080E0EF
:103D900031E040E14A95F1F7880F4A9B02C081600B
:103DA000232742E04A95F1F7000040E14A95F1F7F8
:103DB000915079F790E19A95F1F799B132E03A95FF
:103DC000F1F7000040E14A95F1F792FB992790F94D
:103DD00092272081920F90830895A1E0B0E0E3EF55
:103DE000FEE10C947C2019828C017C01E60EF11C12
:103DF0000E151F0541F481E09981911180E0219613
:103E0000E6E00C9498200E94B31ECE0101960E9419
:103E1000C11EF80181938F01EBCF529A5A9A0895EF
:103E200052985A9AEA9AE9E6F0E080818F7C808382
:103E300008956150770B91E001C0990F6A95EAF7F8
:103E400020E031E0911108C0222391F05A9A80E2DB
:103E50008A95F1F75A980895492F482339F05A9ACC
:103E6000232740E24A95F1F79695ECCF5A98F9CF7F
:103E70005A98EDCFFF920F931F93CF93DF93EC01EE
:103E80008C01060F111DC017D10729F4CDB7DEB77D
:103E9000E5E00C949920F9900E94BB1E68E08F2DFC
:103EA0000E94191FF0CF1F920F920FB60F9211248C
:103EB0000F931F932F933F934F935F936F937F9332
:103EC0008F939F93AF93BF93EF93FF93CF93DF9322
:103ED0001F92CDB7DEB719820E94B31ECE010196A4
:103EE0000E94C11E082F069506950695982F92955B
:103EF0009570202F2570920F292F237096959695F7
:103F0000920F877089135FC0898181115CC009306D
:103F100008F059C080E18A95F1F75A9A529A82E0E6
:103F20008A95F1F700C05A9888E0089F8001112413
:103F3000D801A050BF4F1696ED91FC91179730977E
:103F4000A9F060916D0170916E0114962D913C91D4
:103F50001597260F371F11968D919C911297680F18
:103F6000791F13964C9113978C910995F801E050A5
:103F7000FF4F6381662351F080916D0190916E0136
:103F800024813581820F931F0E943A1F0E94BB1E1D
:103F900080E18A95F1F75A9852985A9A80E18A9569
:103FA000F1F7F801E050FF4F6081662351F08091F6
:103FB0006D0190916E0121813281820F931F0E94C9
:103FC000ED1E0E94B31E0F90DF91CF91FF91EF91F4
:103FD000BF91AF919F918F917F916F915F914F9121
:103FE0003F912F911F910F910F900FBE0F901F9037
:103FF00018950F931F93CF93DF93893091050CF0A1
:104000004DC0EC01F894529A5A9885E08A95F1F7E0
:1040100000009C2F969595708C2F8570980F892F96
:1040200083709695969523E0CC0FDD1F2A95E1F7D6
:10403000980F8E01092B0E94BB1E00C068E0802FE4
:104040000E94191F80E18A95F1F752985A9A4A9B6B
:104050001EC087E090E04A991CC0FE01E050FF4F6F
:1040600063816623F9F080916D0190916E01248146
:104070003581820F931F0E94ED1E811113C0529A49
:104080005A9A7894DF91CF911F910F91089500C0B3
:10409000DECF019729F4529A5A9A789480E0F2CFB1
:1040A00000C0D9CF0E94B31E80E28A95F1F75A98DA
:1040B000529A80E18A95F1F7C050DF4F68816623FC
:1040C00051F080916D0190916E0129813A81820FAA
:1040D000931F0E943A1F0E94BB1E789481E0D2CFAA
:1040E0002F923F924F925F926F927F928F929F9208
:1040F000AF92BF92CF92DF92EF92FF920F931F93F6
:10410000CF93DF93CDB7DEB7CA1BDB0B0FB6F894A6
:10411000DEBF0FBECDBF09942A88398848885F84E6
:104120006E847D848C849B84AA84B984C884DF8057
:10413000EE80FD800C811B81AA81B981CE0FD11D3B
:104140000FB6F894DEBF0FBECDBFED010895DC01C0
:10415000CB01FC01F999FECF06C0F2BDE1BDF89A92
:10416000319600B40D9241505040B8F70895F99936
:10417000FECF92BD81BDF89A992780B50895A8E138
:10418000B0E042E050E00C94A920DC01A40FB51F80
:104190004150504048F0CB01840F951F2E910E9452
:1041A000D62041505040D0F70895262FF999FECFE0
:1041B00092BD81BDF89A019700B4021639F01FBA7A
:1041C00020BD0FB6F894FA9AF99A0FBE0895039697
:1041D000272F0E94D6200E94D520252F0E94D6206E
:1041E000242F0C94D6200196272F0E94D6200C94C1
:1041F000D520AA1BBB1B51E107C0AA1FBB1FA617D6
:10420000B70710F0A61BB70B881F991F5A95A9F77F
:1042100080959095BC01CD01089597FB072E16F46B
:10422000009407D077FD09D00E94F92007FC05D043
:104230003EF4909581959F4F0895709561957F4FBD
:104240000895EE0FFF1F0590F491E02D0994FB01F6
:10425000DC0104C08D910190801921F4415050403F
:10426000C8F7881B990B0895FB01DC0102C001907F
:0E4270000D9241505040D8F70895F894FFCFBA
:10427E000000000100000000000000050100000029
:10428E000506000000000000000000010B00000009
:10429E00000000080C000000000000000000900567
:1042AE0004140000000000000918000000000000C7
:1042BE0035F731333236F4F697C63401FB03540921
:1042CE00F803FA03F903FFFF00FF0066940103F4FD
:1042DE0094333236316697C6343500FF80E50200DE
:1042EE00FF0100010000FFFF0000010001FF0005BB
:1042FE00060708090A0B0C0D0E0F101112131415D8
:10430E00161718191A1B1CFF1D1E1F20212C2B2AD5
:10431E002928273231302F2E2D3837363534333F7A
:10432E003E3D3C3B3AFF3943424140330D16121697
:10433E00353A3C573800080E061D022B003A02484B
:10434E000400170E151D112B0F3A11481300260EDF
:10435E00241D202B1E3A20482200350E331D2F2BF4
:10436E002D3A2F48315729243E333E41405740AD18
:10437E000DCA12CA35A63C89389804A602B500C3E8
:10438E0002D206E0089813A611B50FC311D215E09C
:10439E00179822A620B51EC320D224E0268929987C
:1043AE0031A62FB52DC32FD233E03589409F40ADB6
:1043BE003EBC3E020202020204040404040404048D
:1043CE00040404040404040404040404040404049F
:1043DE000404040404020202020204040404040499
:1043EE00040404040404040404040404040404047F
:0843FE0004040404040404009B
:00000001FF
